{
  "_format": "hh-sol-artifact-1",
  "contractName": "Adaptogen",
  "sourceName": "contracts/Adaptogen.sol",
  "abi": [
    {
      "inputs": [],
      "stateMutability": "nonpayable",
      "type": "constructor"
    },
    {
      "anonymous": false,
      "inputs": [
        {
          "indexed": false,
          "internalType": "address",
          "name": "previousAdmin",
          "type": "address"
        },
        {
          "indexed": false,
          "internalType": "address",
          "name": "newAdmin",
          "type": "address"
        }
      ],
      "name": "AdminChanged",
      "type": "event"
    },
    {
      "anonymous": false,
      "inputs": [
        {
          "indexed": true,
          "internalType": "address",
          "name": "owner",
          "type": "address"
        },
        {
          "indexed": true,
          "internalType": "address",
          "name": "approved",
          "type": "address"
        },
        {
          "indexed": true,
          "internalType": "uint256",
          "name": "tokenId",
          "type": "uint256"
        }
      ],
      "name": "Approval",
      "type": "event"
    },
    {
      "anonymous": false,
      "inputs": [
        {
          "indexed": true,
          "internalType": "address",
          "name": "owner",
          "type": "address"
        },
        {
          "indexed": true,
          "internalType": "address",
          "name": "operator",
          "type": "address"
        },
        {
          "indexed": false,
          "internalType": "bool",
          "name": "approved",
          "type": "bool"
        }
      ],
      "name": "ApprovalForAll",
      "type": "event"
    },
    {
      "anonymous": false,
      "inputs": [
        {
          "indexed": true,
          "internalType": "address",
          "name": "beacon",
          "type": "address"
        }
      ],
      "name": "BeaconUpgraded",
      "type": "event"
    },
    {
      "anonymous": false,
      "inputs": [
        {
          "indexed": false,
          "internalType": "uint8",
          "name": "version",
          "type": "uint8"
        }
      ],
      "name": "Initialized",
      "type": "event"
    },
    {
      "anonymous": false,
      "inputs": [
        {
          "indexed": true,
          "internalType": "address",
          "name": "previousOwner",
          "type": "address"
        },
        {
          "indexed": true,
          "internalType": "address",
          "name": "newOwner",
          "type": "address"
        }
      ],
      "name": "OwnershipTransferred",
      "type": "event"
    },
    {
      "anonymous": false,
      "inputs": [
        {
          "indexed": false,
          "internalType": "uint256",
          "name": "price",
          "type": "uint256"
        },
        {
          "indexed": false,
          "internalType": "string",
          "name": "name",
          "type": "string"
        },
        {
          "indexed": false,
          "internalType": "uint256",
          "name": "item",
          "type": "uint256"
        },
        {
          "indexed": false,
          "internalType": "string",
          "name": "message",
          "type": "string"
        }
      ],
      "name": "Payment",
      "type": "event"
    },
    {
      "anonymous": false,
      "inputs": [
        {
          "indexed": true,
          "internalType": "address",
          "name": "from",
          "type": "address"
        },
        {
          "indexed": true,
          "internalType": "address",
          "name": "to",
          "type": "address"
        },
        {
          "indexed": true,
          "internalType": "uint256",
          "name": "tokenId",
          "type": "uint256"
        }
      ],
      "name": "Transfer",
      "type": "event"
    },
    {
      "anonymous": false,
      "inputs": [
        {
          "indexed": true,
          "internalType": "address",
          "name": "implementation",
          "type": "address"
        }
      ],
      "name": "Upgraded",
      "type": "event"
    },
    {
      "inputs": [
        {
          "internalType": "address",
          "name": "to",
          "type": "address"
        },
        {
          "internalType": "uint256",
          "name": "tokenId",
          "type": "uint256"
        }
      ],
      "name": "approve",
      "outputs": [],
      "stateMutability": "nonpayable",
      "type": "function"
    },
    {
      "inputs": [
        {
          "internalType": "address",
          "name": "owner",
          "type": "address"
        }
      ],
      "name": "balanceOf",
      "outputs": [
        {
          "internalType": "uint256",
          "name": "",
          "type": "uint256"
        }
      ],
      "stateMutability": "view",
      "type": "function"
    },
    {
      "inputs": [
        {
          "internalType": "uint256",
          "name": "tokenId",
          "type": "uint256"
        }
      ],
      "name": "getApproved",
      "outputs": [
        {
          "internalType": "address",
          "name": "",
          "type": "address"
        }
      ],
      "stateMutability": "view",
      "type": "function"
    },
    {
      "inputs": [
        {
          "internalType": "string",
          "name": "_name",
          "type": "string"
        }
      ],
      "name": "getData",
      "outputs": [
        {
          "internalType": "string",
          "name": "",
          "type": "string"
        }
      ],
      "stateMutability": "view",
      "type": "function"
    },
    {
      "inputs": [
        {
          "internalType": "string",
          "name": "_name",
          "type": "string"
        }
      ],
      "name": "getId",
      "outputs": [
        {
          "internalType": "uint256",
          "name": "id",
          "type": "uint256"
        }
      ],
      "stateMutability": "view",
      "type": "function"
    },
    {
      "inputs": [
        {
          "internalType": "uint256",
          "name": "tokenId",
          "type": "uint256"
        }
      ],
      "name": "getName",
      "outputs": [
        {
          "internalType": "string",
          "name": "",
          "type": "string"
        }
      ],
      "stateMutability": "view",
      "type": "function"
    },
    {
      "inputs": [
        {
          "internalType": "uint256",
          "name": "_tokenId",
          "type": "uint256"
        }
      ],
      "name": "getNameForId",
      "outputs": [
        {
          "internalType": "string",
          "name": "",
          "type": "string"
        }
      ],
      "stateMutability": "view",
      "type": "function"
    },
    {
      "inputs": [],
      "name": "initialize",
      "outputs": [],
      "stateMutability": "nonpayable",
      "type": "function"
    },
    {
      "inputs": [
        {
          "internalType": "address",
          "name": "owner",
          "type": "address"
        },
        {
          "internalType": "address",
          "name": "operator",
          "type": "address"
        }
      ],
      "name": "isApprovedForAll",
      "outputs": [
        {
          "internalType": "bool",
          "name": "",
          "type": "bool"
        }
      ],
      "stateMutability": "view",
      "type": "function"
    },
    {
      "inputs": [
        {
          "internalType": "string",
          "name": "_name",
          "type": "string"
        },
        {
          "internalType": "string",
          "name": "_url",
          "type": "string"
        }
      ],
      "name": "mintToken",
      "outputs": [
        {
          "internalType": "uint256",
          "name": "",
          "type": "uint256"
        }
      ],
      "stateMutability": "nonpayable",
      "type": "function"
    },
    {
      "inputs": [],
      "name": "name",
      "outputs": [
        {
          "internalType": "string",
          "name": "",
          "type": "string"
        }
      ],
      "stateMutability": "view",
      "type": "function"
    },
    {
      "inputs": [],
      "name": "owner",
      "outputs": [
        {
          "internalType": "address",
          "name": "",
          "type": "address"
        }
      ],
      "stateMutability": "view",
      "type": "function"
    },
    {
      "inputs": [
        {
          "internalType": "uint256",
          "name": "tokenId",
          "type": "uint256"
        }
      ],
      "name": "ownerOf",
      "outputs": [
        {
          "internalType": "address",
          "name": "",
          "type": "address"
        }
      ],
      "stateMutability": "view",
      "type": "function"
    },
    {
      "inputs": [
        {
          "internalType": "uint256",
          "name": "_item",
          "type": "uint256"
        },
        {
          "internalType": "uint256",
          "name": "_amount",
          "type": "uint256"
        },
        {
          "internalType": "string",
          "name": "_memo",
          "type": "string"
        }
      ],
      "name": "pay",
      "outputs": [],
      "stateMutability": "payable",
      "type": "function"
    },
    {
      "inputs": [
        {
          "internalType": "string",
          "name": "_name",
          "type": "string"
        },
        {
          "internalType": "uint256",
          "name": "_amount",
          "type": "uint256"
        },
        {
          "internalType": "string",
          "name": "_memo",
          "type": "string"
        }
      ],
      "name": "payName",
      "outputs": [],
      "stateMutability": "payable",
      "type": "function"
    },
    {
      "inputs": [],
      "name": "proxiableUUID",
      "outputs": [
        {
          "internalType": "bytes32",
          "name": "",
          "type": "bytes32"
        }
      ],
      "stateMutability": "view",
      "type": "function"
    },
    {
      "inputs": [],
      "name": "renounceOwnership",
      "outputs": [],
      "stateMutability": "nonpayable",
      "type": "function"
    },
    {
      "inputs": [
        {
          "internalType": "address",
          "name": "to",
          "type": "address"
        },
        {
          "internalType": "string",
          "name": "uri",
          "type": "string"
        }
      ],
      "name": "safeMint",
      "outputs": [],
      "stateMutability": "nonpayable",
      "type": "function"
    },
    {
      "inputs": [
        {
          "internalType": "address",
          "name": "from",
          "type": "address"
        },
        {
          "internalType": "address",
          "name": "to",
          "type": "address"
        },
        {
          "internalType": "uint256",
          "name": "tokenId",
          "type": "uint256"
        }
      ],
      "name": "safeTransferFrom",
      "outputs": [],
      "stateMutability": "nonpayable",
      "type": "function"
    },
    {
      "inputs": [
        {
          "internalType": "address",
          "name": "from",
          "type": "address"
        },
        {
          "internalType": "address",
          "name": "to",
          "type": "address"
        },
        {
          "internalType": "uint256",
          "name": "tokenId",
          "type": "uint256"
        },
        {
          "internalType": "bytes",
          "name": "data",
          "type": "bytes"
        }
      ],
      "name": "safeTransferFrom",
      "outputs": [],
      "stateMutability": "nonpayable",
      "type": "function"
    },
    {
      "inputs": [
        {
          "internalType": "string",
          "name": "_name",
          "type": "string"
        },
        {
          "internalType": "string",
          "name": "_address",
          "type": "string"
        }
      ],
      "name": "setAddress",
      "outputs": [],
      "stateMutability": "nonpayable",
      "type": "function"
    },
    {
      "inputs": [
        {
          "internalType": "address",
          "name": "operator",
          "type": "address"
        },
        {
          "internalType": "bool",
          "name": "approved",
          "type": "bool"
        }
      ],
      "name": "setApprovalForAll",
      "outputs": [],
      "stateMutability": "nonpayable",
      "type": "function"
    },
    {
      "inputs": [
        {
          "internalType": "bytes4",
          "name": "interfaceId",
          "type": "bytes4"
        }
      ],
      "name": "supportsInterface",
      "outputs": [
        {
          "internalType": "bool",
          "name": "",
          "type": "bool"
        }
      ],
      "stateMutability": "view",
      "type": "function"
    },
    {
      "inputs": [],
      "name": "symbol",
      "outputs": [
        {
          "internalType": "string",
          "name": "",
          "type": "string"
        }
      ],
      "stateMutability": "view",
      "type": "function"
    },
    {
      "inputs": [
        {
          "internalType": "uint256",
          "name": "index",
          "type": "uint256"
        }
      ],
      "name": "tokenByIndex",
      "outputs": [
        {
          "internalType": "uint256",
          "name": "",
          "type": "uint256"
        }
      ],
      "stateMutability": "view",
      "type": "function"
    },
    {
      "inputs": [
        {
          "internalType": "address",
          "name": "owner",
          "type": "address"
        },
        {
          "internalType": "uint256",
          "name": "index",
          "type": "uint256"
        }
      ],
      "name": "tokenOfOwnerByIndex",
      "outputs": [
        {
          "internalType": "uint256",
          "name": "",
          "type": "uint256"
        }
      ],
      "stateMutability": "view",
      "type": "function"
    },
    {
      "inputs": [
        {
          "internalType": "uint256",
          "name": "tokenId",
          "type": "uint256"
        }
      ],
      "name": "tokenURI",
      "outputs": [
        {
          "internalType": "string",
          "name": "",
          "type": "string"
        }
      ],
      "stateMutability": "view",
      "type": "function"
    },
    {
      "inputs": [],
      "name": "totalSupply",
      "outputs": [
        {
          "internalType": "uint256",
          "name": "",
          "type": "uint256"
        }
      ],
      "stateMutability": "view",
      "type": "function"
    },
    {
      "inputs": [
        {
          "internalType": "address",
          "name": "from",
          "type": "address"
        },
        {
          "internalType": "address",
          "name": "to",
          "type": "address"
        },
        {
          "internalType": "uint256",
          "name": "tokenId",
          "type": "uint256"
        }
      ],
      "name": "transferFrom",
      "outputs": [],
      "stateMutability": "nonpayable",
      "type": "function"
    },
    {
      "inputs": [
        {
          "internalType": "address",
          "name": "newOwner",
          "type": "address"
        }
      ],
      "name": "transferOwnership",
      "outputs": [],
      "stateMutability": "nonpayable",
      "type": "function"
    },
    {
      "inputs": [
        {
          "internalType": "address",
          "name": "newImplementation",
          "type": "address"
        }
      ],
      "name": "upgradeTo",
      "outputs": [],
      "stateMutability": "nonpayable",
      "type": "function"
    },
    {
      "inputs": [
        {
          "internalType": "address",
          "name": "newImplementation",
          "type": "address"
        },
        {
          "internalType": "bytes",
          "name": "data",
          "type": "bytes"
        }
      ],
      "name": "upgradeToAndCall",
      "outputs": [],
      "stateMutability": "payable",
      "type": "function"
    }
  ],
  "bytecode": "0x60a0604052306080523480156200001557600080fd5b50600054610100900460ff1615808015620000375750600054600160ff909116105b8062000067575062000054306200014160201b620013b91760201c565b15801562000067575060005460ff166001145b620000cf5760405162461bcd60e51b815260206004820152602e60248201527f496e697469616c697a61626c653a20636f6e747261637420697320616c72656160448201526d191e481a5b9a5d1a585b1a5e995960921b606482015260840160405180910390fd5b6000805460ff191660011790558015620000f3576000805461ff0019166101001790555b80156200013a576000805461ff0019169055604051600181527f7f26b83ff96e1f2b6a682f133852f6798a09c465da95921460cefb38474024989060200160405180910390a15b5062000150565b6001600160a01b03163b151590565b608051612bbf6200018860003960008181610aa201528181610ae201528181610b9d01528181610bdd0152610d030152612bbf6000f3fe6080604052600436106101e35760003560e01c806370a0823111610102578063ae55c88811610095578063d204c45e11610064578063d204c45e14610543578063e985e9c514610563578063ec6b9e59146105ac578063f2fde38b146105cc57600080fd5b8063ae55c888146104c3578063b88d4fde146104e3578063bee51f3b14610503578063c87b56dd1461052357600080fd5b806395d89b41116100d157806395d89b411461045b578063a22cb46514610470578063a22dee0414610490578063ab8cf592146104b057600080fd5b806370a08231146103f3578063715018a6146104135780638129fc1c146104285780638da5cb5b1461043d57600080fd5b80632f745c591161017a5780634f6ccce7116101495780634f6ccce71461037e57806352d1902d1461039e5780636352211e146103b35780636b8ff574146103d357600080fd5b80632f745c591461030b5780633659cfe61461032b57806342842e0e1461034b5780634f1ef2861461036b57600080fd5b8063158744be116101b6578063158744be1461029957806318160ddd146102ac5780631a04f2f3146102cb57806323b872dd146102eb57600080fd5b806301ffc9a7146101e857806306fdde031461021d578063081812fc1461023f578063095ea7b314610277575b600080fd5b3480156101f457600080fd5b506102086102033660046123de565b6105ec565b60405190151581526020015b60405180910390f35b34801561022957600080fd5b506102326105fd565b6040516102149190612453565b34801561024b57600080fd5b5061025f61025a366004612466565b61068f565b6040516001600160a01b039091168152602001610214565b34801561028357600080fd5b5061029761029236600461249b565b6106b6565b005b6102976102a7366004612568565b6107d1565b3480156102b857600080fd5b506099545b604051908152602001610214565b3480156102d757600080fd5b506102bd6102e63660046125d5565b6108d4565b3480156102f757600080fd5b50610297610306366004612639565b6109d0565b34801561031757600080fd5b506102bd61032636600461249b565b610a01565b34801561033757600080fd5b50610297610346366004612675565b610a97565b34801561035757600080fd5b50610297610366366004612639565b610b77565b610297610379366004612690565b610b92565b34801561038a57600080fd5b506102bd610399366004612466565b610c63565b3480156103aa57600080fd5b506102bd610cf6565b3480156103bf57600080fd5b5061025f6103ce366004612466565b610da9565b3480156103df57600080fd5b506102326103ee366004612466565b610e09565b3480156103ff57600080fd5b506102bd61040e366004612675565b610e14565b34801561041f57600080fd5b50610297610e9a565b34801561043457600080fd5b50610297610eae565b34801561044957600080fd5b5060fb546001600160a01b031661025f565b34801561046757600080fd5b50610232611014565b34801561047c57600080fd5b5061029761048b3660046126d4565b611023565b34801561049c57600080fd5b506102976104ab3660046125d5565b61102e565b6102976104be366004612710565b6110fd565b3480156104cf57600080fd5b506102326104de366004612756565b6111da565b3480156104ef57600080fd5b506102976104fe36600461278b565b6111e8565b34801561050f57600080fd5b506102bd61051e366004612756565b611220565b34801561052f57600080fd5b5061023261053e366004612466565b611249565b34801561054f57600080fd5b5061029761055e366004612690565b6112ec565b34801561056f57600080fd5b5061020861057e3660046127f3565b6001600160a01b039182166000908152606a6020908152604080832093909416825291909152205460ff1690565b3480156105b857600080fd5b506102326105c7366004612466565b611325565b3480156105d857600080fd5b506102976105e7366004612675565b611343565b60006105f7826113c8565b92915050565b60606065805461060c90612826565b80601f016020809104026020016040519081016040528092919081815260200182805461063890612826565b80156106855780601f1061065a57610100808354040283529160200191610685565b820191906000526020600020905b81548152906001019060200180831161066857829003601f168201915b5050505050905090565b600061069a826113ed565b506000908152606960205260409020546001600160a01b031690565b60006106c182610da9565b9050806001600160a01b0316836001600160a01b031614156107345760405162461bcd60e51b815260206004820152602160248201527f4552433732313a20617070726f76616c20746f2063757272656e74206f776e656044820152603960f91b60648201526084015b60405180910390fd5b336001600160a01b03821614806107505750610750813361057e565b6107c25760405162461bcd60e51b815260206004820152603e60248201527f4552433732313a20617070726f76652063616c6c6572206973206e6f7420746f60448201527f6b656e206f776e6572206e6f7220617070726f76656420666f7220616c6c0000606482015260840161072b565b6107cc838361144c565b505050565b6000610193846040516107e49190612861565b9081526040519081900360200190205490506000610803606485612893565b905061080e82610da9565b6001600160a01b03166108fc61082483876128b5565b6040518115909202916000818181858888f1935050505015801561084c573d6000803e3d6000fd5b5060fb546040516001600160a01b039091169082156108fc029083906000818181858888f19350505050158015610887573d6000803e3d6000fd5b507f3ff181e4ea012c2fefaf0d2707c9f5e45edde5d9f44485522bed98bca087716f846108b384611249565b84866040516108c594939291906128cc565b60405180910390a15050505050565b60006108e561019180546001019055565b6000610193846040516108f89190612861565b908152602001604051809103902054111561094c5760405162461bcd60e51b8152602060048201526014602482015273546f6b656e20616c72656164792065786973747360601b604482015260640161072b565b60006109586101915490565b905061096433826114ba565b60008181526101956020908152604090912085516109849287019061232f565b5060008181526101946020908152604090912084516109a59286019061232f565b5080610193856040516109b89190612861565b90815260405190819003602001902055905092915050565b6109da3382611608565b6109f65760405162461bcd60e51b815260040161072b90612908565b6107cc838383611687565b6000610a0c83610e14565b8210610a6e5760405162461bcd60e51b815260206004820152602b60248201527f455243373231456e756d657261626c653a206f776e657220696e646578206f7560448201526a74206f6620626f756e647360a81b606482015260840161072b565b506001600160a01b03919091166000908152609760209081526040808320938352929052205490565b306001600160a01b037f0000000000000000000000000000000000000000000000000000000000000000161415610ae05760405162461bcd60e51b815260040161072b90612956565b7f00000000000000000000000000000000000000000000000000000000000000006001600160a01b0316610b29600080516020612b43833981519152546001600160a01b031690565b6001600160a01b031614610b4f5760405162461bcd60e51b815260040161072b906129a2565b610b588161182e565b60408051600080825260208201909252610b7491839190611836565b50565b6107cc838383604051806020016040528060008152506111e8565b306001600160a01b037f0000000000000000000000000000000000000000000000000000000000000000161415610bdb5760405162461bcd60e51b815260040161072b90612956565b7f00000000000000000000000000000000000000000000000000000000000000006001600160a01b0316610c24600080516020612b43833981519152546001600160a01b031690565b6001600160a01b031614610c4a5760405162461bcd60e51b815260040161072b906129a2565b610c538261182e565b610c5f82826001611836565b5050565b6000610c6e60995490565b8210610cd15760405162461bcd60e51b815260206004820152602c60248201527f455243373231456e756d657261626c653a20676c6f62616c20696e646578206f60448201526b7574206f6620626f756e647360a01b606482015260840161072b565b60998281548110610ce457610ce46129ee565b90600052602060002001549050919050565b6000306001600160a01b037f00000000000000000000000000000000000000000000000000000000000000001614610d965760405162461bcd60e51b815260206004820152603860248201527f555550535570677261646561626c653a206d757374206e6f742062652063616c60448201527f6c6564207468726f7567682064656c656761746563616c6c0000000000000000606482015260840161072b565b50600080516020612b4383398151915290565b6000818152606760205260408120546001600160a01b0316806105f75760405162461bcd60e51b8152602060048201526018602482015277115490cdcc8c4e881a5b9d985b1a59081d1bdad95b88125160421b604482015260640161072b565b60606105f782611249565b60006001600160a01b038216610e7e5760405162461bcd60e51b815260206004820152602960248201527f4552433732313a2061646472657373207a65726f206973206e6f7420612076616044820152683634b21037bbb732b960b91b606482015260840161072b565b506001600160a01b031660009081526068602052604090205490565b610ea26119b0565b610eac6000611a0a565b565b600054610100900460ff1615808015610ece5750600054600160ff909116105b80610ee85750303b158015610ee8575060005460ff166001145b610f4b5760405162461bcd60e51b815260206004820152602e60248201527f496e697469616c697a61626c653a20636f6e747261637420697320616c72656160448201526d191e481a5b9a5d1a585b1a5e995960921b606482015260840161072b565b6000805460ff191660011790558015610f6e576000805461ff0019166101001790555b610fb46040518060400160405280600981526020016830b230b83a37b3b2b760b91b8152506040518060400160405280600381526020016220a3a760e91b815250611a5c565b610fbc611a8d565b610fc4611a8d565b610fcc611ab4565b8015610b74576000805461ff0019169055604051600181527f7f26b83ff96e1f2b6a682f133852f6798a09c465da95921460cefb38474024989060200160405180910390a150565b60606066805461060c90612826565b610c5f338383611ae3565b336001600160a01b03166110606101938460405161104c9190612861565b908152602001604051809103902054610da9565b6001600160a01b0316146110b65760405162461bcd60e51b815260206004820152601a60248201527f4f6e6c7920746865206f776e65722063616e20646f2074686973000000000000604482015260640161072b565b806101946000610193856040516110cd9190612861565b908152602001604051809103902054815260200190815260200160002090805190602001906107cc92919061232f565b600061110a606484612893565b905061111584610da9565b6001600160a01b03166108fc61112b83866128b5565b6040518115909202916000818181858888f19350505050158015611153573d6000803e3d6000fd5b5060fb546040516001600160a01b039091169082156108fc029083906000818181858888f1935050505015801561118e573d6000803e3d6000fd5b507f3ff181e4ea012c2fefaf0d2707c9f5e45edde5d9f44485522bed98bca087716f836111ba86611249565b86856040516111cc94939291906128cc565b60405180910390a150505050565b60606105f761053e83611220565b6111f23383611608565b61120e5760405162461bcd60e51b815260040161072b90612908565b61121a84848484611bb2565b50505050565b6000610193826040516112339190612861565b9081526020016040518091039020549050919050565b60008181526101946020526040902080546060919061126790612826565b80601f016020809104026020016040519081016040528092919081815260200182805461129390612826565b80156112e05780601f106112b5576101008083540402835291602001916112e0565b820191906000526020600020905b8154815290600101906020018083116112c357829003601f168201915b50505050509050919050565b6112f46119b0565b60006113006101915490565b905061131161019180546001019055565b61131b8382611be5565b6107cc8183611bff565b60008181526101956020526040902080546060919061126790612826565b61134b6119b0565b6001600160a01b0381166113b05760405162461bcd60e51b815260206004820152602660248201527f4f776e61626c653a206e6577206f776e657220697320746865207a65726f206160448201526564647265737360d01b606482015260840161072b565b610b7481611a0a565b6001600160a01b03163b151590565b60006001600160e01b0319821663780e9d6360e01b14806105f757506105f782611c99565b6000818152606760205260409020546001600160a01b0316610b745760405162461bcd60e51b8152602060048201526018602482015277115490cdcc8c4e881a5b9d985b1a59081d1bdad95b88125160421b604482015260640161072b565b600081815260696020526040902080546001600160a01b0319166001600160a01b038416908117909155819061148182610da9565b6001600160a01b03167f8c5be1e5ebec7d5bd14f71427d1e84f3dd0314c0f7b2291e5b200ac8c7c3b92560405160405180910390a45050565b6001600160a01b0382166115105760405162461bcd60e51b815260206004820181905260248201527f4552433732313a206d696e7420746f20746865207a65726f2061646472657373604482015260640161072b565b6000818152606760205260409020546001600160a01b0316156115755760405162461bcd60e51b815260206004820152601c60248201527f4552433732313a20746f6b656e20616c7265616479206d696e74656400000000604482015260640161072b565b61158160008383611ce9565b6001600160a01b03821660009081526068602052604081208054600192906115aa908490612a04565b909155505060008181526067602052604080822080546001600160a01b0319166001600160a01b03861690811790915590518392907fddf252ad1be2c89b69c2b068fc378daa952ba7f163c4a11628f55a4df523b3ef908290a45050565b60008061161483610da9565b9050806001600160a01b0316846001600160a01b0316148061165b57506001600160a01b038082166000908152606a602090815260408083209388168352929052205460ff165b8061167f5750836001600160a01b03166116748461068f565b6001600160a01b0316145b949350505050565b826001600160a01b031661169a82610da9565b6001600160a01b0316146116fe5760405162461bcd60e51b815260206004820152602560248201527f4552433732313a207472616e736665722066726f6d20696e636f72726563742060448201526437bbb732b960d91b606482015260840161072b565b6001600160a01b0382166117605760405162461bcd60e51b8152602060048201526024808201527f4552433732313a207472616e7366657220746f20746865207a65726f206164646044820152637265737360e01b606482015260840161072b565b61176b838383611ce9565b61177660008261144c565b6001600160a01b038316600090815260686020526040812080546001929061179f9084906128b5565b90915550506001600160a01b03821660009081526068602052604081208054600192906117cd908490612a04565b909155505060008181526067602052604080822080546001600160a01b0319166001600160a01b0386811691821790925591518493918716917fddf252ad1be2c89b69c2b068fc378daa952ba7f163c4a11628f55a4df523b3ef91a4505050565b610b746119b0565b7f4910fdfa16fed3260ed0e7147f7cc6da11a60208b5b9406d12a635614ffd91435460ff1615611869576107cc83611cf4565b826001600160a01b03166352d1902d6040518163ffffffff1660e01b815260040160206040518083038186803b1580156118a257600080fd5b505afa9250505080156118d2575060408051601f3d908101601f191682019092526118cf91810190612a1c565b60015b6119355760405162461bcd60e51b815260206004820152602e60248201527f45524331393637557067726164653a206e657720696d706c656d656e7461746960448201526d6f6e206973206e6f74205555505360901b606482015260840161072b565b600080516020612b4383398151915281146119a45760405162461bcd60e51b815260206004820152602960248201527f45524331393637557067726164653a20756e737570706f727465642070726f786044820152681a58589b195555525160ba1b606482015260840161072b565b506107cc838383611d90565b60fb546001600160a01b03163314610eac5760405162461bcd60e51b815260206004820181905260248201527f4f776e61626c653a2063616c6c6572206973206e6f7420746865206f776e6572604482015260640161072b565b60fb80546001600160a01b038381166001600160a01b0319831681179093556040519116919082907f8be0079c531659141344cd1fd0a4f28419497f9722a3daafe3b4186f6b6457e090600090a35050565b600054610100900460ff16611a835760405162461bcd60e51b815260040161072b90612a35565b610c5f8282611db5565b600054610100900460ff16610eac5760405162461bcd60e51b815260040161072b90612a35565b600054610100900460ff16611adb5760405162461bcd60e51b815260040161072b90612a35565b610eac611e03565b816001600160a01b0316836001600160a01b03161415611b455760405162461bcd60e51b815260206004820152601960248201527f4552433732313a20617070726f766520746f2063616c6c657200000000000000604482015260640161072b565b6001600160a01b038381166000818152606a6020908152604080832094871680845294825291829020805460ff191686151590811790915591519182527f17307eab39ab6107e8899845ad3d59bd9653f200f220920489ca2b5937696c31910160405180910390a3505050565b611bbd848484611687565b611bc984848484611e33565b61121a5760405162461bcd60e51b815260040161072b90612a80565b610c5f828260405180602001604052806000815250611f40565b6000828152606760205260409020546001600160a01b0316611c7a5760405162461bcd60e51b815260206004820152602e60248201527f45524337323155524953746f726167653a2055524920736574206f66206e6f6e60448201526d32bc34b9ba32b73a103a37b5b2b760911b606482015260840161072b565b600082815260c96020908152604090912082516107cc9284019061232f565b60006001600160e01b031982166380ac58cd60e01b1480611cca57506001600160e01b03198216635b5e139f60e01b145b806105f757506301ffc9a760e01b6001600160e01b03198316146105f7565b6107cc838383611f73565b6001600160a01b0381163b611d615760405162461bcd60e51b815260206004820152602d60248201527f455243313936373a206e657720696d706c656d656e746174696f6e206973206e60448201526c1bdd08184818dbdb9d1c9858dd609a1b606482015260840161072b565b600080516020612b4383398151915280546001600160a01b0319166001600160a01b0392909216919091179055565b611d998361202b565b600082511180611da65750805b156107cc5761121a838361206b565b600054610100900460ff16611ddc5760405162461bcd60e51b815260040161072b90612a35565b8151611def90606590602085019061232f565b5080516107cc90606690602084019061232f565b600054610100900460ff16611e2a5760405162461bcd60e51b815260040161072b90612a35565b610eac33611a0a565b60006001600160a01b0384163b15611f3557604051630a85bd0160e11b81526001600160a01b0385169063150b7a0290611e77903390899088908890600401612ad2565b602060405180830381600087803b158015611e9157600080fd5b505af1925050508015611ec1575060408051601f3d908101601f19168201909252611ebe91810190612b0f565b60015b611f1b573d808015611eef576040519150601f19603f3d011682016040523d82523d6000602084013e611ef4565b606091505b508051611f135760405162461bcd60e51b815260040161072b90612a80565b805181602001fd5b6001600160e01b031916630a85bd0160e11b14905061167f565b506001949350505050565b611f4a83836114ba565b611f576000848484611e33565b6107cc5760405162461bcd60e51b815260040161072b90612a80565b6001600160a01b038316611fce57611fc981609980546000838152609a60205260408120829055600182018355919091527f72a152ddfb8e864297c917af52ea6c1c68aead0fee1a62673fcc7e0c94979d000155565b611ff1565b816001600160a01b0316836001600160a01b031614611ff157611ff1838261215f565b6001600160a01b038216612008576107cc816121fc565b826001600160a01b0316826001600160a01b0316146107cc576107cc82826122ab565b61203481611cf4565b6040516001600160a01b038216907fbc7cd75a20ee27fd9adebab32041f755214dbc6bffa90cc0225b39da2e5c2d3b90600090a250565b60606001600160a01b0383163b6120d35760405162461bcd60e51b815260206004820152602660248201527f416464726573733a2064656c65676174652063616c6c20746f206e6f6e2d636f6044820152651b9d1c9858dd60d21b606482015260840161072b565b600080846001600160a01b0316846040516120ee9190612861565b600060405180830381855af49150503d8060008114612129576040519150601f19603f3d011682016040523d82523d6000602084013e61212e565b606091505b50915091506121568282604051806060016040528060278152602001612b63602791396122ef565b95945050505050565b6000600161216c84610e14565b61217691906128b5565b6000838152609860205260409020549091508082146121c9576001600160a01b03841660009081526097602090815260408083208584528252808320548484528184208190558352609890915290208190555b5060009182526098602090815260408084208490556001600160a01b039094168352609781528383209183525290812055565b60995460009061220e906001906128b5565b6000838152609a602052604081205460998054939450909284908110612236576122366129ee565b906000526020600020015490508060998381548110612257576122576129ee565b6000918252602080832090910192909255828152609a9091526040808220849055858252812055609980548061228f5761228f612b2c565b6001900381819060005260206000200160009055905550505050565b60006122b683610e14565b6001600160a01b039093166000908152609760209081526040808320868452825280832085905593825260989052919091209190915550565b606083156122fe575081612328565b82511561230e5782518084602001fd5b8160405162461bcd60e51b815260040161072b9190612453565b9392505050565b82805461233b90612826565b90600052602060002090601f01602090048101928261235d57600085556123a3565b82601f1061237657805160ff19168380011785556123a3565b828001600101855582156123a3579182015b828111156123a3578251825591602001919060010190612388565b506123af9291506123b3565b5090565b5b808211156123af57600081556001016123b4565b6001600160e01b031981168114610b7457600080fd5b6000602082840312156123f057600080fd5b8135612328816123c8565b60005b838110156124165781810151838201526020016123fe565b8381111561121a5750506000910152565b6000815180845261243f8160208601602086016123fb565b601f01601f19169290920160200192915050565b6020815260006123286020830184612427565b60006020828403121561247857600080fd5b5035919050565b80356001600160a01b038116811461249657600080fd5b919050565b600080604083850312156124ae57600080fd5b6124b78361247f565b946020939093013593505050565b634e487b7160e01b600052604160045260246000fd5b600082601f8301126124ec57600080fd5b813567ffffffffffffffff80821115612507576125076124c5565b604051601f8301601f19908116603f0116810190828211818310171561252f5761252f6124c5565b8160405283815286602085880101111561254857600080fd5b836020870160208301376000602085830101528094505050505092915050565b60008060006060848603121561257d57600080fd5b833567ffffffffffffffff8082111561259557600080fd5b6125a1878388016124db565b94506020860135935060408601359150808211156125be57600080fd5b506125cb868287016124db565b9150509250925092565b600080604083850312156125e857600080fd5b823567ffffffffffffffff8082111561260057600080fd5b61260c868387016124db565b9350602085013591508082111561262257600080fd5b5061262f858286016124db565b9150509250929050565b60008060006060848603121561264e57600080fd5b6126578461247f565b92506126656020850161247f565b9150604084013590509250925092565b60006020828403121561268757600080fd5b6123288261247f565b600080604083850312156126a357600080fd5b6126ac8361247f565b9150602083013567ffffffffffffffff8111156126c857600080fd5b61262f858286016124db565b600080604083850312156126e757600080fd5b6126f08361247f565b91506020830135801515811461270557600080fd5b809150509250929050565b60008060006060848603121561272557600080fd5b8335925060208401359150604084013567ffffffffffffffff81111561274a57600080fd5b6125cb868287016124db565b60006020828403121561276857600080fd5b813567ffffffffffffffff81111561277f57600080fd5b61167f848285016124db565b600080600080608085870312156127a157600080fd5b6127aa8561247f565b93506127b86020860161247f565b925060408501359150606085013567ffffffffffffffff8111156127db57600080fd5b6127e7878288016124db565b91505092959194509250565b6000806040838503121561280657600080fd5b61280f8361247f565b915061281d6020840161247f565b90509250929050565b600181811c9082168061283a57607f821691505b6020821081141561285b57634e487b7160e01b600052602260045260246000fd5b50919050565b600082516128738184602087016123fb565b9190910192915050565b634e487b7160e01b600052601160045260246000fd5b6000826128b057634e487b7160e01b600052601260045260246000fd5b500490565b6000828210156128c7576128c761287d565b500390565b8481526080602082015260006128e56080830186612427565b84604084015282810360608401526128fd8185612427565b979650505050505050565b6020808252602e908201527f4552433732313a2063616c6c6572206973206e6f7420746f6b656e206f776e6560408201526d1c881b9bdc88185c1c1c9bdd995960921b606082015260800190565b6020808252602c908201527f46756e6374696f6e206d7573742062652063616c6c6564207468726f7567682060408201526b19195b1959d85d1958d85b1b60a21b606082015260800190565b6020808252602c908201527f46756e6374696f6e206d7573742062652063616c6c6564207468726f7567682060408201526b6163746976652070726f787960a01b606082015260800190565b634e487b7160e01b600052603260045260246000fd5b60008219821115612a1757612a1761287d565b500190565b600060208284031215612a2e57600080fd5b5051919050565b6020808252602b908201527f496e697469616c697a61626c653a20636f6e7472616374206973206e6f74206960408201526a6e697469616c697a696e6760a81b606082015260800190565b60208082526032908201527f4552433732313a207472616e7366657220746f206e6f6e20455243373231526560408201527131b2b4bb32b91034b6b83632b6b2b73a32b960711b606082015260800190565b6001600160a01b0385811682528416602082015260408101839052608060608201819052600090612b0590830184612427565b9695505050505050565b600060208284031215612b2157600080fd5b8151612328816123c8565b634e487b7160e01b600052603160045260246000fdfe360894a13ba1a3210667c828492db98dca3e2076cc3735a920a3ca505d382bbc416464726573733a206c6f772d6c6576656c2064656c65676174652063616c6c206661696c6564a2646970667358221220924d1c16349ff429524f3f91204092bca2196a4980a5ce5feb7d443d74d874f864736f6c63430008090033",
  "linkReferences": {},
  "deployedLinkReferences": {}
}